S0930000433A5C55736572735C6C656D6D795C4465736B746F705C556E69205374756666202831295C4D6563686174726F6E696320456E67696E656572696E675C4D545258323730305C4D545258323730302D67726F75703266696E616C5C4D545258323730302D67726F7570325C41737369676E6D656E74315C4578657263697365315C62696E5C50726F6A6563742E6162731C
S12310000000000000000000000000000000000000000000000000000000000000000000CC
S12310200000000000000000000000000000000000000000000000000000000000000000AC
S12310404C6F774572206F722055505045723F000000000000000000000000000000000097
S123106000000000000000000000000000000000000000000000000000000000000000006C
S12310800000000000000000000000000000000061742065494F752E0000000000000000B7
S12310A000000000000000000000000000000000000000000000000000000000000000002C
S12310C0000000000000000000000000000000000000000000000000006E6F206361706972
S11110E074616C697365206E6F63617000004B
S1234000CF400010EFCE1040CD10001640EBC60026022025A600B1104F274FC6611816247A
S12340200818066A40080220EBC6611806C620181620006A40080220DBA600B1104F272C66
S1234040C64118162C0818066A40080220EBC61918162D06C65A1806200AC65A1806C6204A
S1234060180620006A40080220CF20FECE1090CD10502000A600B1109827EFC661181627F1
S123408041C6611806C6651816273CC6651806C6691816273BC6691806C66F1816273AC6FB
S12340A06F1806C67518162739C67518066A40080220C1C6611806C620181620006A40088D
S12340C0023D1640B320ADC60418061640B320A4C60818061640B3209BC60E18061640B367
S12340E02092C61418061640B32089CE10D9CD1099F610ED2000A600B110982737812027FB
S123410004085220F1C106372C0220125309C100270220F8A60080206A40080220085309F2
S1194120C100270220F8A6006A4008023353E10027C420F220FEA7
S9030000FC
