S0930000433A5C55736572735C6C656D6D795C4465736B746F705C556E69205374756666202831295C4D6563686174726F6E696320456E67696E656572696E675C4D545258323730305C4D545258323730302D67726F75703266696E616C5C4D545258323730302D67726F7570325C41737369676E6D656E74315C4578657263697365315C62696E5C50726F6A6563742E6162731C
S12310000000000000000000000000000000000000000000000000000000000000000000CC
S12310200000000000000000000000000000000000000000000000000000000000000000AC
S12310404C6F774572206F722055505045723F000000000000000000000000000000000097
S123106000000000000000000000000000000000000000000000000000000000000000006C
S12310800000000000000000000000000000000061742065494F752E0000000000000000B7
S12310A000000000000000000000000000000000000000000000000000000000000000002C
S12310C0000000000000000000000000000000000000000000000000006361706974616C2E
S10E10E0697365206E6F63617000008F
S1234000CF400010EFCE1040CD1000C60026022025A600B1104F274FC66118162408180695
S12340206A40080220EBC6611806C620181620006A40080220DBA600B1104F272CC641186D
S1234040162C0818066A40080220EBC61918162D06C65A1806200AC65A1806C6201806202B
S1234060006A40080220CF20FECE1090CD10502000A600B1109827EFC66118162741C661C7
S12340801806C6651816273CC6651806C6691816273BC6691806C66F1816273AC66F1806D6
S12340A0C67518162739C67518066A40080220C1C6611806C620181620006A4008023D16C5
S12340C040B020ADC60418061640B020A4C60818061640B0209BC60E18061640B02092C650
S12340E01418061640B02089CE10D9CD1099F610EA2000A600B1109827088120270408524A
S123410020F1C1062C02200DCE10D9A60080206A4008022000A6006A40530802C10027D32F
S107412020F320FE66
S9030000FC
